{"abi":[{"type":"constructor","inputs":[{"name":"_initialSequencer","type":"address","internalType":"address"},{"name":"_initialStateRoot","type":"bytes32","internalType":"bytes32"}],"stateMutability":"nonpayable"},{"type":"function","name":"SEQUENCER","inputs":[],"outputs":[{"name":"","type":"address","internalType":"address"}],"stateMutability":"view"},{"type":"function","name":"currentBatchId","inputs":[],"outputs":[{"name":"","type":"uint256","internalType":"uint256"}],"stateMutability":"view"},{"type":"function","name":"currentStateRoot","inputs":[],"outputs":[{"name":"","type":"bytes32","internalType":"bytes32"}],"stateMutability":"view"},{"type":"function","name":"setVerifier","inputs":[{"name":"_verifierAddress","type":"address","internalType":"address"}],"outputs":[],"stateMutability":"nonpayable"},{"type":"function","name":"updateState","inputs":[{"name":"_newStateRoot","type":"bytes32","internalType":"bytes32"},{"name":"_proof","type":"bytes","internalType":"bytes"}],"outputs":[],"stateMutability":"nonpayable"},{"type":"function","name":"verifier","inputs":[],"outputs":[{"name":"","type":"address","internalType":"contract IPlonky2Verifier"}],"stateMutability":"view"},{"type":"event","name":"StateUpdated","inputs":[{"name":"batchId","type":"uint256","indexed":true,"internalType":"uint256"},{"name":"oldStateRoot","type":"bytes32","indexed":false,"internalType":"bytes32"},{"name":"newStateRoot","type":"bytes32","indexed":false,"internalType":"bytes32"}],"anonymous":false},{"type":"event","name":"VerifierUpdated","inputs":[{"name":"newVerifier","type":"address","indexed":true,"internalType":"address"}],"anonymous":false},{"type":"error","name":"InvalidProof","inputs":[]},{"type":"error","name":"Unauthorized","inputs":[]}],"bytecode":{"object":"0x60a060405234801561000f575f5ffd5b506040516108ec3803806108ec8339818101604052810190610031919061010a565b8173ffffffffffffffffffffffffffffffffffffffff1660808173ffffffffffffffffffffffffffffffffffffffff1681525050805f819055505f6002819055505050610148565b5f5ffd5b5f73ffffffffffffffffffffffffffffffffffffffff82169050919050565b5f6100a68261007d565b9050919050565b6100b68161009c565b81146100c0575f5ffd5b50565b5f815190506100d1816100ad565b92915050565b5f819050919050565b6100e9816100d7565b81146100f3575f5ffd5b50565b5f81519050610104816100e0565b92915050565b5f5f604083850312156101205761011f610079565b5b5f61012d858286016100c3565b925050602061013e858286016100f6565b9150509250929050565b6080516107856101675f395f81816101cf015261033801526107855ff3fe608060405234801561000f575f5ffd5b5060043610610060575f3560e01c80630a763da1146100645780632b7ac3f3146100825780635437988d146100a057806375fd4ca9146100bc578063ac2eba98146100da578063ac6e0191146100f8575b5f5ffd5b61006c610114565b60405161007991906103d5565b60405180910390f35b61008a61011a565b6040516100979190610468565b60405180910390f35b6100ba60048036038101906100b591906104c4565b61013f565b005b6100c46101cd565b6040516100d191906104fe565b60405180910390f35b6100e26101f1565b6040516100ef919061052f565b60405180910390f35b610112600480360381019061010d91906105d3565b6101f6565b005b60025481565b60015f9054906101000a900473ffffffffffffffffffffffffffffffffffffffff1681565b610147610336565b8060015f6101000a81548173ffffffffffffffffffffffffffffffffffffffff021916908373ffffffffffffffffffffffffffffffffffffffff1602179055508073ffffffffffffffffffffffffffffffffffffffff167fd24015cc99cc1700cafca3042840a1d8ac1e3964fd2e0e37ea29c654056ee32760405160405180910390a250565b7f000000000000000000000000000000000000000000000000000000000000000081565b5f5481565b6101fe610336565b5f5f5490505f60015f9054906101000a900473ffffffffffffffffffffffffffffffffffffffff1673ffffffffffffffffffffffffffffffffffffffff16638f91ba4c838787876040518563ffffffff1660e01b8152600401610264949392919061068a565b602060405180830381865afa15801561027f573d5f5f3e3d5ffd5b505050506040513d601f19601f820116820180604052508101906102a391906106fd565b9050806102dc576040517f09bde33900000000000000000000000000000000000000000000000000000000815260040160405180910390fd5b845f8190555060025f81548092919060010191905055506002547f75525dfeedff7a993ebc944006ec4885824a6f7731002b3c87c5ed786bd056f68387604051610327929190610728565b60405180910390a25050505050565b7f000000000000000000000000000000000000000000000000000000000000000073ffffffffffffffffffffffffffffffffffffffff163373ffffffffffffffffffffffffffffffffffffffff16146103bb576040517f82b4290000000000000000000000000000000000000000000000000000000000815260040160405180910390fd5b565b5f819050919050565b6103cf816103bd565b82525050565b5f6020820190506103e85f8301846103c6565b92915050565b5f73ffffffffffffffffffffffffffffffffffffffff82169050919050565b5f819050919050565b5f61043061042b610426846103ee565b61040d565b6103ee565b9050919050565b5f61044182610416565b9050919050565b5f61045282610437565b9050919050565b61046281610448565b82525050565b5f60208201905061047b5f830184610459565b92915050565b5f5ffd5b5f5ffd5b5f610493826103ee565b9050919050565b6104a381610489565b81146104ad575f5ffd5b50565b5f813590506104be8161049a565b92915050565b5f602082840312156104d9576104d8610481565b5b5f6104e6848285016104b0565b91505092915050565b6104f881610489565b82525050565b5f6020820190506105115f8301846104ef565b92915050565b5f819050919050565b61052981610517565b82525050565b5f6020820190506105425f830184610520565b92915050565b61055181610517565b811461055b575f5ffd5b50565b5f8135905061056c81610548565b92915050565b5f5ffd5b5f5ffd5b5f5ffd5b5f5f83601f84011261059357610592610572565b5b8235905067ffffffffffffffff8111156105b0576105af610576565b5b6020830191508360018202830111156105cc576105cb61057a565b5b9250929050565b5f5f5f604084860312156105ea576105e9610481565b5b5f6105f78682870161055e565b935050602084013567ffffffffffffffff81111561061857610617610485565b5b6106248682870161057e565b92509250509250925092565b5f82825260208201905092915050565b828183375f83830152505050565b5f601f19601f8301169050919050565b5f6106698385610630565b9350610676838584610640565b61067f8361064e565b840190509392505050565b5f60608201905061069d5f830187610520565b6106aa6020830186610520565b81810360408301526106bd81848661065e565b905095945050505050565b5f8115159050919050565b6106dc816106c8565b81146106e6575f5ffd5b50565b5f815190506106f7816106d3565b92915050565b5f6020828403121561071257610711610481565b5b5f61071f848285016106e9565b91505092915050565b5f60408201905061073b5f830185610520565b6107486020830184610520565b939250505056fea2646970667358221220afb32b4582f377a56dd81415026706b377dc676630148ad2db3fe3dbd4343bff64736f6c63430008210033","linkReferences":{}},"methodIdentifiers":{"SEQUENCER()":"75fd4ca9","currentBatchId()":"0a763da1","currentStateRoot()":"ac2eba98","setVerifier(address)":"5437988d","updateState(bytes32,bytes)":"ac6e0191","verifier()":"2b7ac3f3"},"id":19}